:020000040800F2
:10000000000400209D010008DB0200087F020008B8
:10001000D9020008E50100080D04000800000000F6
:10002000000000000000000000000000FD020008C9
:10003000E701000800000000DD020008B903000825
:10004000B7010008B7010008B7010008B7010008B0
:10005000B7010008B7010008B7010008B7010008A0
:10006000B7010008B7010008B7010008B701000890
:10007000B7010008B7010008B7010008B701000880
:10008000B7010008B7010008B7010008B701000870
:10009000B7010008B7010008B7010008B701000860
:1000A000B7010008B7010008B7010008B701000850
:1000B000B7010008B7010008B7010008B701000840
:1000C000B7010008B7010008B7010008B701000830
:1000D000B7010008B7010008B7010008B701000820
:1000E000B7010008B7010008B7010008B701000810
:1000F000B7010008B7010008B7010008B701000800
:10010000B7010008B7010008B7010008B7010008EF
:10011000B7010008B7010008B7010008B7010008DF
:10012000B7010008B7010008B7010008B7010008CF
:10013000B7010008B7010008B7010008B7010008BF
:10014000B7010008B7010008B7010008B7010008AF
:10015000B7010008B7010008B7010008B70100089F
:10016000B7010008B7010008B7010008B70100088F
:10017000B7010008B7010008B7010008B70100087F
:10018000B7010008B7010008DFF80CD000F018F83C
:10019000004800472D04000800040020064880475E
:1001A00006480047FEE7FEE7FEE7FEE7FEE7FEE75C
:1001B000FEE7FEE7FEE7FEE7BD0300088901000851
:1001C000064C074D06E0E06840F0010394E80700A4
:1001D00098471034AC42F6D3FFF7DAFF1405000855
:1001E00024050008FEE7704701B502E00098401EB4
:1001F000009000980028F9D108BD2DE9F0410022B7
:1002000001274FF0030C07FA02F50B682B40AB42B5
:100210002CD1066853000CFA03F4A64306600E794D
:10022000D0F800809E4046EA080606600E79012E4E
:1002300001D0022E12D18668A64386604E79D0F88E
:1002400008809E4046EA080686604668AE434660DF
:1002500045688E799640B6B235434560C568A5437A
:10026000C560CC799C40C3681C43C460521C102AF2
:10027000C9D3BDE8F0814183704701837047FEE731
:100280002DE9FC410121202000F02AF840240094AF
:1002900001208DF8040000218DF806108DF807006C
:1002A0008DF805100B4F69463846FFF7A6FF8026EC
:1002B000009669463846FFF7A0FFA50000956946FD
:1002C0003846FFF79AFF03481830048006800580FF
:1002D000BDE8FC8100140240FEE770477047000053
:1002E000054A002903D01168014311607047116865
:1002F00081431160704700003038024070470000B1
:100300000CB50022019200922749086840F4803021
:1003100008604FF4A043086800F400300090019892
:10032000401C0190009810B901989842F3D10868D8
:10033000800302D50120009000E00092009801287F
:1003400031D119484030026842F0805202601748AB
:10035000026842F4404202601348083002680260BA
:10036000026842F400420260026842F4A052026055
:10037000021F0F4B13600A6842F080720A600A681D
:100380009201FCD50B4A40F205711160016821F021
:1003900003010160016841F0020101600168C1F3DD
:1003A00081010229FAD10CBD0038024000700040E2
:1003B00019544007003C02407047000010B50F4838
:1003C000016841F0010101600C4A0021083211600E
:1003D00002680B4B1A400260031D0A4A1A60026849
:1003E00022F48022026005480C300160FFF788FF8C
:1003F00005494FF00060086010BD00000038024061
:10040000FFFFF6FE1030002408ED00E0FEE702E0FA
:1004100008C8121F08C1002AFAD17047704700208F
:1004200001E001C1121F002AFBD17047FFF728FF2E
:10043000374CDFF8DCA01A344FF040086FF07F47EC
:100440004FF080094FF48076A51E40215046FFF7FB
:1004500012FF3846FFF7C8FE40215046FFF70DFF58
:1004600080215046FFF707FF3846FFF7BDFE802189
:100470005046FFF702FF31465046FFF7FCFE384674
:10048000FFF7B2FE31465046FFF7F7FEA4F80080B2
:10049000A5F800902E803846FFF7A6FEA5F800804C
:1004A000A4F800902E803846FFF79EFEA5F8008045
:1004B000A5F8009026803846FFF796FEA4F8008045
:1004C000A4F800902E803846FFF78EFEA4F8008036
:1004D000A5F8009026803846FFF786FEA5F8008034
:1004E000A4F8009026803846FFF77EFEA4F800802E
:1004F000A4F8009026803846FFF776FEA5F8008025
:10050000A5F800902E803846FFF76EFE9DE70000AC
:100510000014024024050008000000200004000030
:040520001E040008AD
:040000050800018965
:00000001FF
